:020000040800F2
:100000005810002005010008070B00080D09000822
:10001000050B000851080008AD11000800000000A1
:100020000000000000000000000000006F0C00084D
:100030006508000800000000810B0008190D000889
:100040001F0100081F0100081F0100081F01000810
:100050001F0100081F0100081F0100081F01000800
:100060001F0100081F0100081F0100081F010008F0
:100070001F0100081F0100081F0100081F010008E0
:100080001F0100081F0100081F0100081F010008D0
:10009000A91000081F0100081F0100081F01000827
:1000A0001F0100081F0100081F0100081F010008B0
:1000B000E50D00081F0100081F0100081F010008CE
:1000C0001F0100081F0100081F0100081F01000890
:1000D0001F010008590F00081F0100081F01000838
:1000E0001F0100081F0100081F010008DFF810D0E1
:1000F00000F00EFB00480047D9200008AFF3008055
:10010000581000200648804706480047FEE7FEE7F3
:10011000FEE7FEE7FEE7FEE7FEE7FEE7FEE7FEE7B7
:10012000950D0008ED000008D2B201E000F8012BA7
:10013000491EFBD270470022F6E710B513460A4667
:1001400004461946FFF7F0FF204610BD421C10F888
:10015000011B0029FBD1801A704710B5002200E076
:10016000521C835C8C5CA34201D1002BF8D1D8B225
:10017000E1B2401A10BD034611F8012B00F8012B23
:10018000002AF9D11846704730B5054600200346CD
:1001900000E05B1C934205D2EC5CC85C201A01D1E4
:1001A000002CF6D130BD80EA010210B502F0004308
:1001B000400022D04A001FD0010E01EB1261C0F3B3
:1001C0005600C2F3560240F4000042F40002A0FBC5
:1001D000022000047F39140400D0401C50EA124071
:1001E00001D44000491EC2B20C0604EBD010401CE2
:1001F0004008802A02D003E0002010BD20F001005A
:10020000002900DA0020184310BD30B480EA010252
:1002100002F0004530F0004221F0004013D090B1D0
:10022000C30DD40DC2F31601C0F31600E41A41F455
:10023000000140F400027D34914201D3641C00E0CF
:100240004900002C02DA30BC002070474FF4000057
:100250000023914201D3891A034340084FEA410128
:10026000F7D151B1914202D14FF0004105E002D2E5
:100270004FF0010101E06FF0010103EBC45028448D
:1002800030BC00F055B8C10F80EAE0700844CA07DE
:100290009623002100F055B896230022114600F065
:1002A00050B830B50B46014600202022012409E059
:1002B00021FA02F59D4205D303FA02F5491B04FA1F
:1002C00002F52844151EA2F10102F1DC30BD2DE932
:1002D000F05F0546002092469B46884606468146CA
:1002E00040241BE0284641464746224600F031FAAA
:1002F00053465A46C01A914110D311461846224619
:1003000000F018FA2D1A67EB01084F46224601202B
:10031000002100F00FFA17EB00094E41201EA4F156
:100320000104DFDC484631462A464346BDE8F09FDB
:100330000029A8BF7047401C490008BF20F00100F9
:10034000704710B4B0FA80FC00FA0CF050EA0104D7
:1003500004BF10BC704749B1CCF1200421FA04F469
:1003600011FA0CF118BF012121430843A3EB0C0142
:10037000CB1D4FEA00614FEA102042BF002010BCA5
:10038000704700EBC35010440029A4BF10BC704755
:10039000401C490008BF20F0010010BC70472DE947
:1003A000FE4F804681EA0300C00F0C46009021F00A
:1003B000004123F00045B8EB0200A94105D24046B8
:1003C000214690461C460B46024623F0004010434F
:1003D00047D0270DC7F30A00C3F30A510290401A11
:1003E000019040286BDAC3F3130040F4801B00989F
:1003F000924620B10023D2EB030A63EB0B0B01986A
:100400005946C0F14002504600F094F906460D46A8
:1004100050465946019A00F0ACF910EB08006141D2
:10042000002487EA115284EAE7731A4340D0009A05
:1004300062B3019A012A4FEA075215DC001B61EBF7
:1004400002014FF0004202EA0752CDE90042001CCF
:1004500041F5801132462B4600F0ACF903B0BDE8FF
:10046000F08F40462146F9E7001B61EB0201001CBA
:1004700041F5801300185B412018A2F5001747EBE7
:10048000030140EAD570B6196D4111E06D084FEADD
:10049000360645EAC0754FEA0752001B61EB0201C0
:1004A000001C41F5801149084FEA30000019514104
:1004B00032462B4603B0BDE8F04F00F06CB900980F
:1004C000012240000023D0EB020263EBE0730098AE
:1004D00021464FEAE074B8EB000061EB0401E9E764
:1004E00083F000435BE781F0004158E72DE9FE4FC0
:1004F00081EA030404F0004421F0004100944FF02D
:10050000000B23F0004350EA01045ED052EA0304DA
:100510005BD0C3F30A54C1F30A552C44A4F2F3345C
:100520000194A0FB0254C1F3130141F48011C3F301
:10053000130343F4801301FB024400FB034E840ABF
:10054000970A44EA815447EA8357A4FB0768029557
:100550008D0A05FB07854FEA932C04FB0C542705F5
:10056000029D4FEA065847EA1637B5EB08056EEBD1
:10057000070C870E920E47EA811742EA8312A7FB07
:100580000201B6EB0B0164EB00042B0D43EA0C33C4
:100590005E1844EB1C50DA465146E7FB0201C5F3F6
:1005A00013044FEA0B3343EA14534FEA0432019C1D
:1005B00043EA0603A4F10C040294009CCDE900B4C4
:1005C00000F0F8F803B0BDE8F08F00200146F9E72D
:1005D0002DE9F04D81EA030404F0004B21F00045C1
:1005E00014464FF0000A23F0004150EA050220D0E3
:1005F00054EA01021DD0C5F30A570246C5F313039E
:10060000C1F31300C1F30A5640F4801543F480137C
:10061000A7EB0608101BD64608F2FD3873EB050061
:1006200002D308F1010801E092185B41B8F1000F14
:1006300003DA00200146BDE8F08D00204FF4801160
:10064000064684460EE0171B73EB050705D3121B05
:1006500063EB050306434CEA010C49084FEA3000FE
:1006600092185B4150EA0107EDD152EA030012D023
:1006700082EA040083EA0501084305D0101BAB4160
:1006800006D20122002306E000224FF0004302E0E0
:100690006FF0010253101AEB06004CEB085110EBFF
:1006A0000A0041EB0B01BDE8F04D00F074B8C1F356
:1006B0000A52C1F3130140F2FF3341F480119A4210
:1006C00002DA00200146704740F233439A42A2F218
:1006D000334202DC524200F03CB800F02BB800007C
:1006E00030B5041E71F1000404DB4FF000444042B9
:1006F00064EB0101141E73F1000405DB1C464FF08E
:100700000043524263EB0403994208BF904230BD5C
:10071000064C074D06E0E06840F0010394E807004E
:1007200098471034AC42F6D3FFF7E4FC6C3800086D
:100730008C380008202A04DB203A00FA02F100205D
:1007400070479140C2F1200320FA03F3194390400F
:100750007047202A04DB203A21FA02F0002170477A
:1007600021FA02F3D040C2F1200291400843194619
:100770007047202A06DBCB17203A41FA02F043EA01
:10078000E07306E041FA02F3D040C2F1200291404A
:1007900008431946704710B5141E73F1000408DAB7
:1007A000401C41F1000192185B411A4301D120F035
:1007B000010010BD2DE9F04D92469B4611B1B1FAF2
:1007C00081F202E0B0FA80F220329046FFF7B2FFE9
:1007D00004460F4640EA0A0041EA0B0153465A46D6
:1007E000084313D0114653EA010019D0C8F1400262
:1007F0005046FFF7AEFF05460E4650465946424664
:10080000FFF798FF084305D0012004E02046394651
:10081000BDE8F08D0020054346EAE0762C433743DF
:100820000A986305E40AA0EB08000022FD0A44EAE6
:1008300047540A3002D500200146E9E701051019A6
:100840006941DDE9084500196941BDE8F04DA2E7BD
:10085000FEE7000008B10020704701487047000023
:100860000C04002070470000F0B5CA78002502F0A3
:100870000F03D20601D58A7813430A784FF00F0E82
:1008800012F0FF0F4FF001021CD004680F8802FA2B
:1008900005F63740B74211D14FEA850C0EFA0CF736
:1008A00024EA070703FA0CF43C43CF78282F02D040
:1008B000482F02D002E0466100E006616D1C082D61
:1008C000E4D304600C88FF2C1ED944685FF0000656
:1008D00006F1080702FA07F50F882F40AF420FD143
:1008E0004FEA860C0EFA0CF7BC4303FA0CF73C43B4
:1008F000CF78282F00D14561CF78482F00D10561EE
:10090000761C082EE4D34460F0BD0000064942F294
:100910001072086880F4807008600020401C80B26B
:100920009042FBD3F5E700000C08014010B586B0FB
:100930000121052000F032F90121880300F02EF991
:100940004FF40070ADF8100018208DF8130003204C
:100950001A4C8DF8120004A92046FFF785FF2015D8
:10096000ADF8100004208DF8130004A92046FFF70D
:100970007BFF4FF4E13000900020ADF80400ADF8AB
:100980000600ADF80800ADF80C000C200C4CADF8DA
:100990000A006946204600F029FB012240F2255159
:1009A000204600F00BFB0121204600F0DEFA40213A
:1009B000204600F0D7FA06B010BD00000008014044
:1009C0000038014007488068800409D40648006860
:1009D000C00705D105488068C00501D501207047D2
:1009E000002070470010014008080140002001402D
:1009F00007488068800409D506480068C00705D00C
:100A000005488068C00501D4012070470020704768
:100A1000001001400808014000200140074880689C
:100A2000800409D506480068C00705D005488068DD
:100A3000C00501D50120704700207047001001401B
:100A4000080801400020014007488068800409D55B
:100A500006480068C00705D105488068C00501D474
:100A60000120704700207047001001400808014035
:100A70000020014003488068000401D40120704731
:100A8000002070470020014003480068000701D49F
:100A90000120704700207047081401400348806817
:100AA000400401D40120704700207047002001401D
:100AB00003488068800401D40120704700207047FB
:100AC0000020014003488068000601D401207047DF
:100AD000002070470020014007488068800409D446
:100AE00006480068C00705D005488068C00501D5E4
:100AF00001207047002070470010014008080140A5
:100B000000200140FEE7704770B50F23C4780178DC
:100B10000122F4B1144C2468457804F4E064C4F56F
:100B2000E064240AC4F10406E3408478B5401C4024
:100B30002C4301F1E021230181F80034007800F01A
:100B40001F018A404009800000F1E020C0F8002128
:100B500070BD01F01F0082404809800000F1E020D4
:100B6000C0F8802170BD00000CED00E00249084390
:100B700002490860704700000000FA050CED00E033
:100B800070470000044A0029D16901D0014300E008
:100B90008143D1617047000000100240044A0029DF
:100BA000916901D0014300E08143916170470000E9
:100BB0000010024030B51F494A6812F00C031E4A6B
:100BC00003D0042B01D0082B21D002604A680F23E8
:100BD0001A4C03EA1212A35C0268DA4042604B68C6
:100BE000072505EA1323E35C22FA03F383604B68CD
:100BF00005EAD323E35CDA40C2604968032303EAD1
:100C00009131231F595CB2FBF1F1016130BD4A689B
:100C10004B6802F470124FF0020413F4803F04EBAF
:100C2000924202D04B689B0301D5054B00E0024B7A
:100C30005A43CAE70010024000127A002800002040
:100C400000093D000029018802D041F0400101E087
:100C500021F04001018070470246002012890A42BB
:100C600000D00120704780897047818170477047AC
:100C70000CB50021264801910091026842F48032AF
:100C800002604FF4A063026802F400320092019AFD
:100C9000521C0192009A12B9019A9A42F3D1026849
:100CA000920333D5012100911A490A6842F01002DB
:100CB0000A600A6822F003020A600A6842F002022F
:100CC0000A604168416041684160416841F4806167
:100CD0004160416821F47C114160416841F4E811B0
:100CE0004160016841F08071016001688901FCD5B3
:100CF000416821F003014160416841F00201416017
:100D00004168C1F381010229FAD10CBD00910CBDEB
:100D10000010024000200240AFF3008070B51B4C71
:100D20006068012220B16068401E606000D12270BE
:100D3000174B002101EB410003EB800045684DB1EA
:100D400045686D1E456005D142700578012D01D1C1
:100D500085684560491CC9B20429EBD3A068401CD2
:100D6000A060A0686FF000410025884200D1A56016
:100D700001F0AAF86078401CC0B260700A2804D361
:100D80006570BDE8704001F09DB870BD080000209E
:100D9000DC0300200F4810B5016841F0010101603B
:100DA00041680D4A1140416001680C4A11400160E0
:100DB000016821F480210160416821F4FE01416055
:100DC0004FF41F018160FFF753FF05494FF00060AA
:100DD000086010BD001002400000FFF8FFFFF6FEA3
:100DE00008ED00E070B502214C07204600F051F8F4
:100DF000204D50B10221204600F03EF80022022191
:100E0000204600F052F8E86880470421204600F0B0
:100E100040F850B10421204600F02EF800220421B1
:100E2000204600F042F8286980470821204600F05B
:100E300030F850B10821204600F01EF800220821A9
:100E4000204600F032F8686980471021204600F003
:100E500020F800280CD01021204600F00DF80022C8
:100E60001021204600F021F8A869BDE87040004735
:100E700070BD000008000020C943018270470029AE
:100E8000018802D041F0010101E021F0010101805F
:100E9000704702460020138A92890B4202EA01023F
:100EA00002D0002A00D001207047002A828901D098
:100EB0000A4300E08A4382817047000030B502880F
:100EC0001B4B1C4C98420DD0A0420BD0B0F1804F70
:100ED00008D0194DA84205D0184DA84202D0184D8F
:100EE000A84203D122F070054A882A43154DA84232
:100EF00006D0154DA84203D022F44075CA882A4373
:100F000002808A8882850A88028598420AD0A04297
:100F100008D00E4A904205D00D4A904202D00D4AA8
:100F2000904201D1097A01860121818230BD000001
:100F3000002C014000340140000400400008004043
:100F4000000C004000100040001400400040014030
:100F50000044014000480140014800F0ABB80000E7
:100F60000C040020C943018070470029818902D008
:100F700041F4005101E021F400518181704730B506
:100F800001F01F0201240025C1F3421304FA02F20A
:100F9000012B0FD0022B0FD0838A4FEA112100883A
:100FA000134204FA01F400EA040001D000B1012563
:100FB000284630BD8389F0E7038AEEE710B5C1F318
:100FC000421301F01F040121A140012B07D0022B85
:100FD00007D01430002A026805D00A4304E00C3020
:100FE000F8E71030F6E78A43026010BD30B50446DA
:100FF000008A85B00D464CF6FF710840E988014330
:101000002182A1894EF6F3100140A8882A89104355
:101010006A890A431043A081A08A4FF6FF41084025
:10102000A9890143A1826846FFF7C4FD194884429B
:1010300001D1039800E00298A189090400EBC001E6
:1010400001EB0010296801D5490000E08900B0FBE0
:10105000F1F06422B0FBF2F109010B096FF0180501
:101060006B4300EB8300A3891D044FF0320306D5C8
:1010700003EBC000B0FBF2F000F0070005E003EB6B
:101080000010B0FBF2F000F00F000843208105B023
:1010900030BD0000003801408088C0F30800704770
:1010A000C1F30801818070470148C06970470000A2
:1010B000001002402DE9F0410446006840F225513D
:1010C000FFF75DFF0025B8B12068FFF7E5FFE28A72
:1010D000A168C0B28854E18A491C8AB2E282E189DF
:1010E0008A4200D3E582628B8A4202D2618B491C1C
:1010F0006183616A01B1884740F2277739462068E9
:10110000FFF73DFF40F2266690B1A08AC0B90022E9
:1011100039462068FFF752FF31462068BDE8F041AC
:101120000122FFF74BBFA08A401EA082BDE8F081DC
:1011300031462068FFF723FF0028F7D0A08A70B15E
:10114000618A6068415C2068FFF7AAFF608A401CE2
:1011500080B26082A1898842E5D36582E3E70022FC
:1011600031462068FFF72AFF206A0028DED0BDE85C
:10117000F04100470C480B49016000F12801416033
:1011800000F5856181604FF480618181C18100211A
:1011900001824182C182018341838182C1610162F6
:1011A00041627047003801400C040020FEE7000057
:1011B0000FB4054B10B503A9044A029800F0DAF801
:1011C00010BC5DF814FB000043200008A0000020C4
:1011D00002E008C8121F08C1002AFAD17047704700
:1011E000002001E001C1121F002AFBD1704700005E
:1011F0002DE9FF5F82B00021DDE90430020DDDF84A
:1012000040B0034318D044F61050A2F2FF324243DC
:101210001514119801281FD0A5EB0B00401C5FEAA4
:10122000000A4FF000064E4FDFF83891B0465046A6
:1012300015D5CAF1000413E0119801244AA301282E
:1012400001D16FEA0B010298119AC0E90031C0E99F
:10125000024206B0BDE8F09FCBF10000DFE7044694
:101260000021404A491842EB0450CDE9001012E039
:10127000E00707D032463B4640464946FFF736F97D
:101280008046894632463B4610461946FFF72EF9FE
:1012900006460F466410002CEAD1DDE90401DDE9C1
:1012A0000023BAF1000F06DAFFF720F942464B4659
:1012B000FFF71CF905E0FFF78BF942464B46FFF7B5
:1012C00087F904460E460022284BFFF709FA03D897
:1012D0004FF0FF30014607E00022254B2046314603
:1012E000FFF75DF8FFF7E3F9102409E0002C0ADBB3
:1012F0000A220023FEF7EBFF039B30321A55641ECF
:1013000050EA0102F2D1641C039AC4F1110314449F
:10131000119A012A03D0012208430DD10AE00843A3
:1013200004D000204FF0110B119072E7A3EB0B05D6
:101330006D1E0DE05B4504DD4FF0000205F1010577
:1013400004E003DA4FF00002A5F10105002AECD019
:1013500002981199C0E90231C0E9004579E700001F
:10136000000014400000F03F300000000000F04397
:101370000000E03F2DE9FF4F95B09A4688460646AB
:101380000025EEE1252877D100242746F94A0121DE
:10139000039400E0044316F8013F203B01FA03F0F8
:1013A0001042F7D130782A2811D06FF02F0330780F
:1013B000A0F13002092A16D8039A44F0020402EB85
:1013C000820203EB42021044761C0390EFE758F8C8
:1013D000042B0392002A03DA504244F40054039091
:1013E00044F00204761C30782E2816D116F8010F2E
:1013F00044F004042A280DD06FF02F023078A0F1B9
:101400003003092B09D807EB870302EB4303C71806
:10141000761CF3E758F8047B761C30786C280FD0E4
:1014200006DC4C2817D068280DD06A2814D104E0B7
:10143000742810D07A280FD10DE044F400140AE08B
:1014400044F4801401E044F440147278824202D1E2
:1014500004F58014761C761C307866280BD013DCDB
:10146000582877D009DC002875D04528F6D04628C2
:10147000F4D047281AD193E118E0632835D06428C6
:1014800079D0652812D18BE1702873D008DC6728E9
:10149000F1D069286FD06E280DD06F2806D1ACE04E
:1014A00073282CD0752874D0782853D052461799B9
:1014B00090476D1C54E1C4F30250022809D0032860
:1014C0000DD0D8F8001004280DD00D6008F10408E4
:1014D00046E1D8F80010EA17C1E90052F6E7D8F85B
:1014E00000100D80F2E70D70F0E718F8041B8DF87E
:1014F000001000208DF80100EB46012003E058F8B1
:1015000004BB4FF0FF3061074FF0000102D40DE043
:1015100009F101018946B9420FDA8145F8DB1BF870
:1015200009100029F4D108E009F10101894681423E
:10153000FADB1BF809100029F6D103985346A0EBFB
:10154000090721463846179A00F080FA284400EB34
:10155000090507E044E008E10DE01BF8010B5246E5
:1015600017999047B9F10109F7D2534621463846F9
:10157000179AF2E039E00A21C4F302524FF0000B4F
:101580000091022A06D058F8040BC117032A09D08B
:101590000AE023E008F1070020F00702F2E8020168
:1015A000904605E000B2C117042A01D140B2C1172C
:1015B000002906DA0A460021404261EB02012D2291
:1015C00002E0220504D52B228DF80420012203E03D
:1015D000E20701D02022F7E7914657E00A2100E018
:1015E00010214FF0000B00910BE010214FF0000B89
:1015F00044F004040827009103E008204FF0000B9A
:101600000090C4F30252022A05D058F8040B0021BE
:10161000032A08D008E008F1070020F00702F2E8EA
:101620000201904603E080B2042A00D1C0B24FF01C
:10163000000922072AD53278702A07D0DDF800C0C9
:101640008CF0100C5CEA0B0C05D00EE040228DF8FB
:101650000420012208E050EA010306D030238DF86F
:1016600004308DF8052002229146009B83F0080388
:1016700053EA0B030AD150EA010201D1620705D5F2
:1016800030228DF804204FF001097F1E3278582A4D
:1016900004D039A20C920CAA02920BE03BA2F9E70B
:1016A0005B46009AFEF713FE0C9B9B5C029A521E4F
:1016B0000292137050EA0102F2D1029804A9081AAA
:1016C00000F1200B600702D524F4803400E00127EC
:1016D0005F4502DDA7EB0B0000E0002000EB0B01F3
:1016E000009003984944401A0390E00306D45346FF
:1016F0002146179A039800F0A9F90544002706E04F
:1017000001A85246C05D179990476D1C7F1C4F453C
:10171000F6DBE0030CD553462146179A039800F0F8
:1017200095F9054404E030205246179990476D1C06
:101730000099481E00900029F5DC08E00298029903
:1017400052460078491C0291179990476D1CBBF1D5
:101750000001ABF1010BF1DC5BE100F065F9054440
:10176000761C307800287FF40DAE19B02846BDE80D
:10177000F08F00000928010030313233343536371C
:1017800038396162636465660000000030313233CD
:10179000343536373839414243444546000000006D
:1017A000600700D4062708F1070020F00700F0E8E2
:1017B0000223804603F0004C5FEA0C0001D097A0A2
:1017C00009E0200501D596A005E0E00701D095A02D
:1017D00001E0AFF24C001390307823F0004365280D
:1017E0000CD006DC452809D046281DD047287FD1DB
:1017F0003BE0662818D067287AD136E00021112F07
:1018000001DB112000E0781CCDE9000104A90CA83F
:10181000FFF7EEFCDDE90D010C9A4FF0000B07F12C
:101820000109109200914EE04FF000400097CDE981
:10183000011004A90CA8FFF7DBFCDDE90D020C9BED
:101840000F994FF0000B91461093009211B9791C3B
:1018500000EB0109B7EB090003D4C0F1FF3B07F12E
:101860000109A9EB0700019042E0012F00DA0127EE
:101870000021112F01DD112000E03846CDE90001E3
:1018800004A90CA8FFF7B4FCDDE90D010C9A009146
:101890004FF0000BB946109221070FD4009A4A4529
:1018A00003DA914601E0A9F10109B9F1010F05DD63
:1018B000109AA9F10101515C3029F4D0B84202DA42
:1018C00010F1040F03DA0121CDE9011010E0002826
:1018D00003DC8344A9EB000102E0411C494500DD23
:1018E0008946A0EB0B00401C01904FF00040029095
:1018F000200705D40198484502DB4FF0FF300190E6
:1019000000208DF84B0002980DF14B07B0F1004F0D
:1019100025D002200C902B200D90029800280CDA84
:10192000404202902D200D9007E00A210298FEF718
:10193000B8FC3031029007F8011D0C99481E0C903C
:101940000029F2DC02980028EFD1791E0D9808706A
:10195000307800F0200040F0450007F8020D11A893
:10196000C01BC01D02901398007800B1012000EB4D
:101970000901019801EBE071029801440398401AB3
:10198000401E0390E00306D453462146179A03985D
:1019900000F05CF805441398007818B15246179986
:1019A00090476D1CE00323D553462146179A0398B0
:1019B00000F04CF805441BE0BBF1000F07DB00987A
:1019C000584504DD1098179910F80B0001E017999D
:1019D00030205246904701980BF1010B401E05F153
:1019E0000105019004D12E205246179990476D1C95
:1019F000B9F10001A9F10109DEDC05E017F8010BDE
:101A00005246179990476D1C0299481E0290002972
:101A1000F4DC53462146179A03989EE62D000000F9
:101A20002B000000200000002DE9F04104460025B5
:101A30001E461746880404D405E039462020B047E6
:101A40006D1C641EF9D52846BDE8F0812DE9F041F2
:101A5000044600251E469046C80301D5302700E005
:101A60002027880404D505E041463846B0476D1C60
:101A7000641EF9D52846BDE8F081000070B5064621
:101A8000284800EB0614206880470521002500281F
:101A9000207906EB460331D0052801D2217170BDB3
:101AA0000A2802D2401C207170BDA07A06EB4606BF
:101AB000761C20B90120A072F0B200F0F5F921895E
:101AC0000029F1D0E088884208D2401C80B2E08032
:101AD00021898842E8D1DB1CD8B20BE0E07A0028EB
:101AE000E2D0207B401CC0B22073E17A8842DBD375
:101AF0002573F0B2BDE8704000F0D6B9052801D9D1
:101B000021710BE010B1401E207107E0A07A01287E
:101B100004D19B1CA572D8B200F0C6F9E5802573EC
:101B200070BD00001003002010B54FF44070FFF7A7
:101B30001DF800F09DF900F03DF800F069F900F0A3
:101B400029F9BDE8104000F0DFB800007FB50121A1
:101B50000846FFF717F815481549002400684FF0AC
:101B600080454008B0FBF1F04FF6FF71ADF804106E
:101B7000ADF80000ADF80640ADF8024069462846D1
:101B8000FFF79CF901212846FFF779F91C208DF811
:101B90000C0004208DF80D008DF80E4001208DF80A
:101BA0000F0003A8FEF7B0FF7FBD00003800002043
:101BB00040420F0010B500F053F8BDE8104000F0AF
:101BC00001B8000038B501214FF49A70FEF7E6FF26
:101BD00003208DF8020004208DF80300C402ADF844
:101BE000004069461A48FEF73FFE0120ADF80000AC
:101BF00069461848FEF738FE6011174DADF8000031
:101C000069462846FEF730FEA000ADF800006946A0
:101C10002846FEF729FE0820ADF8000069460F4867
:101C2000FEF722FE6000ADF8000069462846FEF788
:101C30001BFEADF8004069462846FEF715FE8020E1
:101C4000ADF8000069462846FEF70EFE38BD0000DC
:101C50000010014000080140002001400014014034
:101C600030B51E48002164238172C1720173A0380F
:101C70000A46022500EB0214521C23812571A17231
:101C8000E172D2B221730A2AF4D30387052180F8C6
:101C90003B10A0F8483080F84B10A0F8583080F87E
:101CA0005B10A0F8683080F86B100D4940F82C1BD1
:101CB0000C4940F81C1C0C4940F80C1C0B494160B5
:101CC0000B4941610B4941620B4941630B49416436
:101CD0000B4941650B49416630BD0000B00300204F
:101CE000C50900081D0A0008490A0008750A00080D
:101CF000890A00089D0A0008B10A0008C50A000800
:101D0000D90A0008F109000838B501218020FEF742
:101D100045FF012000F068FA10208DF80300032031
:101D20008DF802004FF40060ADF8000069461648D7
:101D3000FEF79AFD00F006FA002000F055FA0420A4
:101D400000F0FCF8012000F04FFA00F063FA0F48B1
:101D50000F4900240068884208D1002000F044FAAE
:101D6000502000F0EBF8012000F03EFA002000F0D7
:101D70003BFA012000F0E2F8204600F0DFF8BDE871
:101D80003840012000F030BA001C0140C0030020A0
:101D90004125BF0038B501210803FEF7FFFE0121F0
:101DA0000420FEF7FBFE18208DF8030003208DF8B9
:101DB00002002020144CADF8000069462046FEF7D2
:101DC00053FD4020ADF8000069462046FEF74CFD6B
:101DD0008020ADF8000069462046FEF745FD4FF42F
:101DE0004B7000F073F8094CA08B20F40060A083C6
:101DF0000720208200212046FEF724FF01212046F3
:101E0000FEF720FF38BD000000080140003001400F
:101E100030B40020134A014600EB400402EB840377
:101E200059609960597002F82410401CC0B204280F
:101E3000F2D30D484FF47A720068B0FBF2F0B0F1C3
:101E4000807F0CD220F07F424FF0E020521E426192
:101E5000064BF02283F8142D81610721016130BC0B
:101E6000FFF774BEDC030020380000200FE000E024
:101E700008B5FFF77FF9FEF759FD25208DF8000022
:101E800000208DF8020001208DF803006846FEF75F
:101E90003BFE08BD10B500242046FFF7EFFD641C93
:101EA000E4B20A2CF8D310BD0549CA7A8854C87A1E
:101EB000401CC0B2C8720A2801D30020C872704703
:101EC000B0030020FFF7E6BF7047000007490A880B
:101ED00002F4415202430A80088820F04000088042
:101EE000088840F040000880704700000030014042
:101EF00001490120087070470400002001490020BA
:101F0000087070470400002010B50B4C02212046D9
:101F1000FEF7A2FE0028F9D000212046FEF7A5FE1C
:101F200001212046FEF798FE0028F9D02046FEF752
:101F30009AFEC0B210BD00000030014070B50B4CDD
:101F4000054602212046FEF787FE0028F9D02946E3
:101F50002046FEF78AFE01212046FEF77DFE00287E
:101F6000F9D02046BDE87040FEF77DBE003001404C
:101F700010B5FEF76FFC00281FD00246012080F349
:101F80001088538B002080F31088002B15D0148B01
:101F900093681B5D0B70012181F31088118B491C24
:101FA00089B21183D389994200D31083508B401E8C
:101FB0005083002080F31088012010BDF8B515462D
:101FC0000E46FEF747FC040034D0E06900B18047BC
:101FD000002025E0A189012282F31088A28AADF8B1
:101FE0000020002282F31088BDF800209142F2D92F
:101FF000315C238A6268D154012181F31088218ADF
:10200000491C89B22182A289914201D300212182F7
:10201000A18A491CA182002181F31088401C80B252
:10202000A842D7D32068BDE8F840012240F22771CA
:10203000FEF7C4BFF8BD13B5012201A9FFF7BEFF2B
:102040001CBD10B50446C1B20020FFF7F4FF2046C6
:1020500010BD000070B50E460546014608A0FFF70A
:10206000A7F8012407E000BF56F8241009A0FFF7E5
:102070009FF8641CE4B2AC42F6DB642070BD000043
:102080002564706172616D657465722873290D0A2B
:102090000000000025730D0A0000000010B5134673
:1020A0000A46014602A0FFF783F8C82010BD0000D1
:1020B000696E70757420696E743A2025642C2063F3
:1020C0006861723A2025632C20737472696E673AD6
:1020D0002025730D0A000000FFF726FD0A48094974
:1020E0004FF4007241660949816600F16C0100F00D
:1020F00067FC074900200880891C0880024801F01D
:10210000C9F8FBE7292E0008A40000205933000875
:102110000000002070B5002000F066F89F20FFF757
:102120000DFFFFF7F1FE0446FFF7EEFE0546FFF751
:10213000EBFE0646012000F057F8200440EA052097
:10214000304370BD70B5FFF7E5FF154C15494FF4EE
:102150000016206040184FF4805509D012494018ED
:1021600008D0124940180BD0012810D010A102E06D
:1021700013A100E015A1201DFDF7FDFF66610DE034
:1021800015A1201DFDF7F7FF4FF4000005E014A195
:10219000201DFDF7F0FF4FF080706061258370BD5A
:1021A000C0030020BFDA40FF2C05FDFFFEDFD2FF99
:1021B000556E6B6E6F7720466C617368000000008F
:1021C0005353543235564630313642004D5832352D
:1021D0004C31363036450000573235513634000028
:1021E000573235513132380010B54FF4006428B100
:1021F00007480460BDE81040FFF780BEFFF778FE97
:1022000040F21730FFF762FE0148001D046010BD68
:10221000101C014010B50020FFF7E6FF0520FFF776
:102220008DFE00BFFFF770FEC007FBD1BDE8104078
:102230000120FFF7D9BF012100F04CB80B784BB15A
:102240004A7802F00F02082A04D002685AB11278C4
:10225000134208D090F86000C00702D14878C00649
:1022600001D5002070474FF0FF30704710B500F0E7
:1022700079FA002805D00349896BBDE8104001F0C8
:102280000FB910BD4C000020F8B505468089E989DA
:10229000401A04B2202607E08DF80060AA6E0121E2
:1022A00068469047641E24B2002CF5DC297B284642
:1022B000BDE8F84000F07AB810B500F053FA0028F5
:1022C00003D0BDE8104000F053BC10BD4FF0FF310B
:1022D000AFF30080F8B50446481C03D00023E28920
:1022E00012B103E00123FAE701295DD0A0898242FF
:1022F00001D14D1C58D00025824201D1012901D0C5
:10230000184613E0521E401EE28180B2A08121696E
:102310000D542046BDE8F840012100F047B822697D
:102320001144421E465C401C8E5400B2A289E189D1
:10233000521A8242F3DCA089401EA081082643B9CC
:10234000E089401EE0818DF80060A26E01216846A0
:102350009047A18920694554B4F90E5009E02069DD
:102360000121405D8DF80000A26E684690476D1C0B
:102370002DB2A089A842F2DC20208DF80000A26EC8
:10238000012168469047A089E189401A401C05B2A6
:1023900008E000BF8DF80060A26E012168469047FA
:1023A0006D1E2DB2002DF5DCF8BD000070B50C4699
:1023B000054603E003A1284601F072F8641EE4B26A
:1023C000F8D270BD082008004FF0FF3100F078BA55
:1023D00010B5044600F006F82046BDE81040012183
:1023E00000F0F0BF70B504468089002835D021691F
:1023F00000251E4E0D5494F86000C00721D02046E1
:1024000000F0AAFA204600F0D3FCE581A581E08E19
:10241000002822D016A1204601F042F800232046D1
:10242000A26D616900F076FD010004D02046BDE890
:10243000704000F013BD2046B169BDE8704001F066
:102440002FB8206881682069FDF787FE30B1716B75
:10245000204601F025F8A581E58170BD94F8600063
:1024600040F0010084F860003168F1E74C00002082
:102470000D0A0000411C00200A785C2A01D0104699
:10248000704749786E290FD004DC3029F8D06229D2
:1024900004D105E0722905D0742907D00846704799
:1024A000082070470D2070470A20704709207047A8
:1024B0002DE9F0410746002300780A2601221D4637
:1024C0001C462D2808D000203844002190F800C078
:1024D000BCF1300F04D01FE04FF0FF320120F3E7D2
:1024E0004178782907D0582905D0622905D042299A
:1024F00003D0022110E003210EE001210CE000BF17
:1025000090F800C0BCF12E0F06D190F801C0BCF1CC
:10251000000F01D0042111E010F801CBBCF1000F35
:10252000EED1012908D0022903D0032906D11026B3
:1025300003E00826012301E0022602233B44501C4D
:1025400002D0002003441FE00120FBE72E2805D025
:10255000A0F13007092F03D8F8B20FE0012412E0F0
:10256000A0F16107052F01D8573804E0A0F1410719
:10257000052F02D83738C0B200E0002005FB060561
:1025800004EB840044005B1C18780028DED1042989
:1025900013D194B11046FDF776FE06462046FDF7AE
:1025A0007BFE04462846FDF777FE2146FDF72DFE0B
:1025B0003146BDE8F041FDF7F6BD05FB02F0BDE890
:1025C000F0812DE9F0410446087827280AD02D280B
:1025D00003D0A0F13002092A0CD8BDE8F04108462A
:1025E000FFF766BF4A78002AF3D0BDE8F0410846FD
:1025F000FFF740BF0026242807D0002816D0002768
:102600000D460C46222813D01DE04A78002AF6D049
:1026100000232046491CA26D00F07CFC010004D080
:102620002046BDE8F04100F0B1B83046BDE8F08189
:102630006C1C254607E05C280BD022280FD0E855FB
:102640007F1CBFB2641C20780028F4D1EE552846C8
:10265000ECE7601EFFF70EFFE855641CF0E7EE554F
:10266000EEE72DE9F0478CB00C46824699461546B8
:10267000202103A8FDF75FFDA0786E1E00F00F0774
:10268000B74200DC374600250DF10C0808E009EBE5
:10269000850041685046FFF794FF48F825006D1CFF
:1026A000B542F4DB082F3CD2DFE807F004090D1235
:1026B000181E2630A06880470CB0BDE8F087A168DE
:1026C00003988847F8E7DDE90301A2689047F3E73C
:1026D00003AB93E80700A3689847EDE703ADA46850
:1026E00095E80F00A047E7E70798009003ADA468BE
:1026F00095E80F00A047DFE7DDE90701CDE900011C
:1027000003ADA46895E80F00A047D5E707AB03AD7C
:1027100093E807008DE8070095E80F00A468A0473C
:10272000CAE74FF0FF30C7E7C068704700B5002127
:102730000B4A30235354491CC9B20929FAD34178B2
:1027400001F00F01012903D9072901D9082901D86E
:10275000406800BD4068024900F0D2FD004800BD5D
:10276000480C00200849002051F8202032B192F88E
:102770006020920702D551F820007047401C00B23B
:102780000528F1DB00207047340C00204A78002037
:1027900002F00F02921E062A06D2DFE802F00306BC
:1027A0000A0D0D0F8868006870478868B0F900004E
:1027B0007047886800787047886870478868416803
:1027C00009B1006808470020704700002DE9F05F5C
:1027D0005FEA0109054649D0A86B1824002710F4C8
:1027E0007F4F03D000246FF0FF070AE010F47F0F43
:1027F00002D00824274F04E0000E02D010244FF02E
:102800007F470026B246D5F8588033E008EB061B18
:102810009BF8010000F00F00092829D159462846ED
:10282000FFF70CFD20BBDBF80400AB6B00EA0701EF
:1028300099421DD1FF2202FA04F1084009FA04F17D
:10284000884215D10B434FF00009AB6334B1A4F1BA
:102850000801DBF804008A40104209D108EB061099
:10286000816809B128468847C5F838A0BDE8F09FBF
:10287000761C36B2B5F85C00B042C7DCB9F1000F87
:10288000F4D049462846C5F838A0BDE8F05F00F00E
:1028900087BA00000000FFFF10B50B460446FFF7A3
:1028A00061FF00280BD0012C05D008DD5968BDE878
:1028B000104000F05BBDBDE8104000F059B910BDFC
:1028C00070B500250446002918DDB4F95430A3F191
:1028D0000100A4F85400B4F85010B4F8520081423A
:1028E00001D90A4600E002465242934212DC81427C
:1028F00000D908464042A4F854000BE009DAB4F8C5
:102900005400401C00B2A4F85400002802DDA4F8D2
:10291000545070BD2046FFF7B7FCB4F95400C0B165
:10292000B4F8521008440521401D90FBF1F201FB60
:10293000120004EB8000C16B206900F021FCA08133
:102940000028E6D0E08120462169BDE8704000F013
:10295000A7BDA581E58170BD70B500250446A0F82E
:102960005450B0F8500058B1B4F85200216900B981
:10297000052004EB8000806BFDF7EFFB00281ED0E4
:10298000B4F85200216904EB8000C06B00F0F8FB42
:1029900020B1B4F85200401CA4F85200B4F8500022
:1029A000401C80B2A4F85000052802D90520A4F8E4
:1029B0005000B4F85200052801D3A4F8525070BD5D
:1029C00010B504460020A081E0810B46206094F8F9
:1029D000601041F0010184F860100621B2FBF1F1B2
:1029E0002361A186A4F85400A4F85000A4F8520072
:1029F000A28E411C02FB013204EB8000C26308B2CC
:102A00000528F5DB11481249A065081A0009A4F849
:102A10005C001049002000BF51F820209AB1401CF2
:102A200000B20528F8DB00230BA12046A26D00F0C0
:102A300071FA0146204600F0A5FA2046BDE8104094
:102A4000012100F0BFBC41F82040ECE78C380008C1
:102A5000CC390008340C00206C6574746572000079
:102A6000F8B504468089A28E521E90420EDB324891
:102A70004168204600F014FD0121204600F0A2FC30
:102A800020462169BDE8F84000F00ABDE289002334
:102A9000824214D10246256900F10100A081A954A7
:102AA000A28920698354E08900F10100E0818DF85A
:102AB0000010A26E4FF0010168469047F8BDFDD2AC
:102AC000A0EB020000B207E0E58922691544A0F1FD
:102AD0000102AE5C465510B20028F5DCE08925699C
:102AE000421CE2812954A0892169401C80B2A08146
:102AF0000B54E089401E05B209E020690121405DC8
:102B00008DF80000A26E684690476D1C2DB2A0891A
:102B1000A842F2DCE18980B2401A05B2082607E03B
:102B20008DF80060A26E0121684690476D1E2DB29F
:102B3000002DF5DCF8BD00004C00002010B5FFF7BB
:102B400011FE002803D0BDE8104000F0B1B810BD60
:102B500038B50446C089002809D008208DF8000047
:102B6000A26E012168469047E089401EE08138BD91
:102B70002DE9F0410646876D0F488168304600F028
:102B80008FFC002412E000BF07EB0415687800F00A
:102B90000F00012808D829463046FFF74FFB18B927
:102BA0002946304600F00AF8641C24B2B6F85C00EE
:102BB000A042E9DCBDE8F0814C000020F8B50546F4
:102BC0000E460846FFF7B2FD0146284600F068FCB5
:102BD000C0F1160004B2002C00DC04245FF02007D2
:102BE0008DF80070AA6E012168469047641E24B2D9
:102BF000002CF5D1707800F00F012948012901D887
:102C0000016C0CE0072901D8416C08E0082901D8C3
:102C1000816C04E0092901D8C16C00E0016D2846EF
:102C200000F03EFC1FA1284600F03AFC07240127D3
:102C3000307807FA04F1084201D0782000E02D2016
:102C40008DF80000AA6E012168469047641E64B2A8
:102C5000002CEDDA13A1284600F022FC3046FFF7E5
:102C600063FDAA6E03460021A2B102E0491C89B2AD
:102C7000401C04781CB10D2C01D00A2CF6D124295B
:102C800006D9242118469047032107A0AA6E00E028
:102C9000184690472846BDE8F84004A100F000BC63
:102CA0004C000020202000002E2E2E000D0A0000D7
:102CB0002DE9F0410646876D10484169304600F025
:102CC000EFFB002414E000BF07EB0415687800F068
:102CD0000F0008280AD9092808D829463046FFF7E6
:102CE000ADFA18B929463046FFF768FF641C24B2D4
:102CF000B6F85C00A042E7DCBDE8F0814C000020A3
:102D00002DE9F0410646876D10480169304600F014
:102D1000C7FB002414E000BF07EB0415687800F03F
:102D20000F0007280AD9082808D829463046FFF797
:102D300085FA18B929463046FFF740FF641C24B2D3
:102D4000B6F85C00A042E7DCBDE8F0814C00002052
:102D50002DE9F0410646876D1048C168304600F005
:102D60009FFB002413E000BF07EB0415687800F018
:102D70000F00801E052808D829463046FFF75EFA66
:102D800018B929463046FFF719FF641C24B2B6F87B
:102D90005C00A042E8DCBDE8F08100004C000020AF
:102DA00090F8602022F0040280F86020FFF758BEFF
:102DB00070B50022012311464FEA020400EB8105A1
:102DC000491C09B26C610829F8DBC486002127E0A0
:102DD00022B905696E5C202E1ED0EEB105696E5CCD
:102DE000222E01D11AB10022012B02D00BE00122C8
:102DF000FAE7C38E082B05D200EB83065B1C0D445B
:102E0000C3867561002305696E5C5C2E06D14E1C7D
:102E1000AD5D1DB1B1B201E06C540123491C89B212
:102E200085898D42D4D870BD10B501460020FFF7CA
:102E30009FF8002800D0012010BD08B5C189828903
:102E4000914209D203694A1CC281595C8DF8001075
:102E5000826E01216846904708BD00002DE9F047C9
:102E6000044690F860000F4640F0020084F86000CD
:102E7000497800250A0704F114090BD001F00F006E
:102E800001282AD0811E052936D83946204600F06F
:102E90000DF937E00025A84617E000BF04EB8506D2
:102EA00070690178222904D180F800807069401C83
:102EB0007061FDF74BF980B27169401E0A5C222AED
:102EC00001D101F800806D1CADB2E08EA842E5D8BA
:102ED000BA68E08E4946904705E0E28E4B46394697
:102EE0002046FFF7BEFB0546787880060AD42946BF
:102EF000204600F095FA05E0082803D1394620461F
:102F000000F040F814F8600F20F00200207028460E
:102F1000BDE8F0872DE9F04706468A46B16DB0F866
:102F20005C00511AA0EB11109946154687B2002497
:102F30001BE000BF05EB041898F8010000F00F003B
:102F4000092810D041463046FFF778F958B9404675
:102F5000FFF7ECFB0146B9F100000BD002465046EA
:102F6000FDF712F950B1641CA4B2BC42E2D30020B8
:102F7000BDE8F0875046FDF7F0F8F3E705EB0410E5
:102F8000F6E7000070B50446016088680D4600B39E
:102F9000FDF7DCF8E8B1E08E022804D3A169A86847
:102FA000FDF7DBF8A8B194F8600020F0010000BF45
:102FB0000B4D84F860002046A96B00F071FA94F87C
:102FC0006000C0070AD020462968BDE8704000F0C4
:102FD00067BA94F8600040F00100E9E770BD0000B6
:102FE0004C0000202DE9F0410E460746FFF7BAFBE2
:102FF000041E16D000233946A26DFFF78BFF0E4D3D
:10300000010010D0487800F00F00801E06280CD375
:103010003946204600F044FA696A204600F040FA3A
:103020000020BDE8F081A96AF7E732462046BDE8F6
:10303000F04100F003B800004C00002070B50C46D1
:103040000546497818484B0601D5016A18E001F099
:103050000F01891E062921D2DFE801F00306090CC1
:103060001116A068026019E0A068028016E0A0684E
:10307000027013E01146A06800F082F80EE0C1690A
:10308000284600F00DFA09E0A068836833B10068B3
:1030900010B11146984701E010469847214628464E
:1030A000BDE8704000F002B84C000020FEB523A23D
:1030B0000C46064607CA8DE8070021463046FFF752
:1030C00065FB05463046616800F0EAF91EA130460E
:1030D00000F0E6F9607800F00F00052823D069467B
:1030E000284600F0E7F8C0F10B006C4601193046A5
:1030F00000F0D6F915A1304600F0D2F900213020B9
:103100006054491C09B20B29FADB6946284600F0D5
:10311000F7F86946304600F0C3F90EA1304600F0DA
:10312000BFF92846FEBD0CA1304600F0B9F929468A
:10313000304600F0B5F908A1ECE70000303030303F
:103140003030303030303000203D20002C203078BE
:10315000000000000D0A00002200000030B5044607
:103160000020024605E0AB4209D1401C521C80B24F
:1031700092B2A35C002B02D08D5C002DF3D130BD48
:103180000246002002E01354401C80B20B5C002B6E
:10319000F9D10021115470472DE9F05FB0F8348067
:1031A0004FF00009818904464D4631B12069CA4675
:1031B000564600F801A0A76D3BE02046FFF7D8FC7B
:1031C0002046BDE8F05F012100F0FCB807EB0611D6
:1031D0008B462046FFF732F848BB5846FFF7A6FA61
:1031E00001462069FFF7BAFFA18988421FD1D5B1F6
:1031F000012D03D126A1204600F052F907EB091951
:1032000049462046FFF7DAFC5846FFF78FFA834617
:103210004846FFF78BFA5946FFF7A0FF4146804525
:1032200000D8084680466D1C1FFA86F9ADB2761CA0
:1032300036B2B4F85C00B042C8DC002D26D0012DB7
:1032400002D12046FFF720F807EB09100646FFF7EA
:103250006DFA01462069FFF793FFA081012D09D97E
:1032600031462046FFF7AAFC0121204600F0AAF8CB
:10327000A4F80C80A289216901F802A0A089E0814C
:1032800020462169BDE8F05F00F00AB9BDE8F09F73
:103290000D0A000038B5426E0446002A09D001210B
:1032A00068469047012804D19DF800102046FFF79A
:1032B0008DFA38BD30B50B22031E00DA43420024DC
:1032C000CC720A240AE000BF93FBF4F504FB153529
:1032D00093FBF4F3521ED2B230358D54002BF3D150
:1032E000002802DA4FF02D0002E005D14FF0300047
:1032F000A2F10102D2B28854C2F10B0040B230BD3B
:10330000082200230B720AE000F00F03092B01D9F9
:10331000573300E03033521ED2B200098B540028DC
:10332000F2D1C2F1080040B270470121FFF7C8BADC
:1033300010B5FFF717FA002803D0BDE81040FFF7DB
:10334000DFBC10BD10B5FFF70DFA002803D0BDE8B3
:103350001040FFF7FDBC10BD10B50C460A460146F3
:103360000020FEF72BFE20B210BD000070B5054610
:103370000023826DFFF7CEFD0400104817D0C16A0C
:10338000284600F08DF82046FFF7D0F90146284680
:1033900000F086F80AA1284600F082F82046FFF7E0
:1033A000C3F90146284600F07BF805A100E08169D9
:1033B0002846BDE8704000F073B800004C000020C3
:1033C0000D0A000010B5044690F86000C00719D03F
:1033D00019B10EA1204600F063F82068416820462C
:1033E00000F05EF80AA1204600F05AF8A16801B981
:1033F00008A1204600F054F807A12046BDE810407F
:1034000000F04EB80548016BF7E700000D0A000018
:103410003A0000002F000000242000004C00002093
:10342000FEB516A20D46064607CA8DE8070016A18E
:10343000304600F035F869462846FFF73BFFC0F1FB
:103440000B006C460119304600F02AF811A13046F5
:1034500000F026F800223020A054521C12B20B2A91
:10346000FADB69462846FFF74BFF6946304600F015
:1034700017F80AA1304600F013F8FEBD30303030A6
:10348000303030303030300052657475726E3A2012
:10349000000000002C203078000000000D0A000021
:1034A00010B50B46846E00211A461CB9002010BDD1
:1034B000491C89B212F8010B0028F9D11846A0471F
:1034C00080B210BD66756E635F6172677600746569
:1034D00073740066756E635F737472696E670074EF
:1034E000657374006C657474657200006465666170
:1034F000756C742075736572007365745661720023
:103500007365742076617200757000646F776E0069
:103510007269676874006C65667400746162006249
:1035200061636B7370616365006261636B7370618B
:1035300063650064656C65746500656E7465720032
:10354000656E7465720068656C700073686F7720D3
:10355000636F6D6D616E6420696E666F0D0A6865DC
:103560006C70205B636D645D007573657273006CD5
:1035700069737420616C6C207573657200636D648F
:1035800073006C69737420616C6C20636D640076E9
:10359000617273006C69737420616C6C2076617267
:1035A000006B657973006C69737420616C6C206BBF
:1035B000657900636C65617200636C65617220639C
:1035C0006F6E736F6C6500000D0A436F6D6D616EF9
:1035D00064204C6973743A0D0A0000000D0A5661AC
:1035E00072204C6973743A0D0A0000000D0A55737D
:1035F0006572204C6973743A0D0A00000D0A4B6520
:1036000079204C6973743A0D0A000000436F6D6DA8
:10361000616E64206E6F7420466F756E640D0A00D3
:103620000D0A5761726E696E673A20436F6D6D6166
:103630006E6420697320746F6F206C6F6E670D0A63
:1036400000000000206973206E6F74206120766195
:10365000720D0A0063616E277420736574207265B1
:103660006164206F6E6C79207661720D0A00000033
:1036700063616E27742073657420706F696E746562
:10368000720D0A000D0A205F20202020202020201B
:10369000205F2020205F20202020202020202020AC
:1036A00020202020202020205F20202020202020DB
:1036B0002020205F205F200D0A7C207C20202020FD
:1036C0005F5F5F7C207C5F7C207C5F205F5F5F2092
:1036D0005F205F5F2020205F5F5F7C207C5F5F203A
:1036E00020205F5F5F7C207C207C0D0A7C207C207A
:1036F00020202F205F205C205F5F7C205F5F2F20D9
:103700005F205C20275F5F7C202F205F5F7C20276D
:103710005F205C202F205F205C207C207C0D0A7CB9
:10372000207C5F5F7C20205F5F2F207C5F7C207C83
:103730007C20205F5F2F207C202020205C5F5F208A
:103740005C207C207C207C20205F5F2F207C207CE4
:103750000D0A7C5F5F5F5F5F5C5F5F5F7C5C5F5FEC
:103760007C5C5F5F5C5F5F5F7C5F7C202020207CF7
:103770005F5F5F2F5F7C207C5F7C5C5F5F5F7C5F57
:103780007C5F7C0D0A0D0A4275696C643A2020202A
:103790002020202041756720313020323032322005
:1037A00030393A30313A30350D0A56657273696FE7
:1037B0006E3A2020202020332E312E320D0A436F06
:1037C000707972696768743A202020286329203252
:1037D000303230204C65747465720D0A00000000B0
:1037E0000D0A70617373776F7264206572726F7205
:1037F0000D0A0000566172206E6F7420466F756E60
:10380000740D0A001B5B324B0D000000434D442039
:103810000000000056415220000000004B45592096
:1038200000000000636F6D6D616E642068656C70F0
:10383000206F662000000000506C65617365206990
:103840006E7075742070617373776F72643A0000E4
:103850004E4F4E45000000001B5B324A1B5B314857
:10386000000000005553455200000000CC3900080C
:1038700000000020A4000000D0110008703A0008E9
:10388000A4000020B40F0000E011000800000000B8
:10389000C434000855200008CE34000800010000A0
:1038A000D33400089D200008DF3400080008000021
:1038B000E4340008EB340008EC3400080021000078
:1038C000F9340008E52F0008003500080009000061
:1038D00000415B1B2B33000808350008000900007D
:1038E00000425B1BC92300080B35000800190000CB
:1038F00000435B1B3B2E0008103500080019000038
:1039000000445B1B512B000816350008000900001D
:1039100000000009993100081B350008001900005B
:1039200000000008372200081F35000800190000B9
:103930000000007F37220008293500080019000028
:103940007E335B1BCD2200083335000800190000D0
:103950000000000AD12300083A35000800190000D1
:103960000000000DD12300084035000800200000B1
:1039700046350008992800084B3500080021000052
:1039800069350008313300086F3500080021000058
:103990007D350008B92200088235000800210000AA
:1039A0008F350008453300089435000800210000D9
:1039B000A13500083D2B0008A635000800210000B5
:1039C000B33500086D220008B9350008000000007A
:1039D00000000000000000000000000000000000E7
:1039E00000000000000000000000000000000000D7
:1039F000020406080000000001020304010203049F
:103A00000607080900A24A040000000000000000A8
:103A1000010203040607080984360008203600085E
:103A2000C8350008DC350008EC350008FC35000816
:103A30000C3600087036000854360008443600087A
:103A4000F43700082438000838380008E037000848
:103A500058380008043800080C38000814380008EA
:103A6000643800081C3800085038000800000000C6
:04000005080000ED02
:00000001FF
