:020000040800F2
:10000000D01D0020050100088F05000861020008CE
:100010008D0500088D010008850E00080000000015
:10002000000000000000000000000000D3080008ED
:10003000B901000800000000090600087D09000859
:100040001F0100081F0100081F0100081F01000810
:100050001F0100081F0100081F0100081F01000800
:100060001F0100081F0100081F0100081F010008F0
:100070001F0100081F0100081F0100081F010008E0
:100080001F0100081F0100081F0100081F010008D0
:10009000250D00081F0100081F0100081F010008AE
:1000A0001F0100081F0100081F0100081F010008B0
:1000B000490A00081F0100081F0100081F0100086D
:1000C0001F0100081F0100081F0100081F01000890
:1000D0001F010008BD0B0008C90B0008D50B000864
:1000E0001F0100081F0100081F010008DFF810D0E1
:1000F00000F03AF80048004739160008AFF30080D6
:10010000D01D00200648804706480047FEE7FEE76E
:10011000FEE7FEE7FEE7FEE7FEE7FEE7FEE7FEE7B7
:10012000F9090008ED000008034611F8012B00F85A
:10013000012B002AF9D11846704730B50B4601460D
:1001400000202022012409E021FA02F59D4205D376
:1001500003FA02F5491B04FA02F52844151EA2F120
:100160000102F1DC30BD0000064C074D06E0E068FE
:1001700040F0010394E8070098471034AC42F6D3EE
:10018000FFF7B8FFFC1700081C180008FEE7000086
:1001900028B1012805D0022805D000207047034867
:1001A000704703487047034870470000540100201F
:1001B0007C090020A411002070470000F0B5CA7827
:1001C000002502F00F03D20601D58A7813430A787E
:1001D0004FF00F0E12F0FF0F4FF001021CD0046819
:1001E0000F8802FA05F63740B74211D14FEA850C65
:1001F0000EFA0CF724EA070703FA0CF43C43CF7815
:10020000282F02D0482F02D002E0466100E00661AC
:100210006D1C082DE4D304600C88FF2C1ED94468A3
:100220005FF0000606F1080702FA07F50F882F4075
:10023000AF420FD14FEA860C0EFA0CF7BC4303FA1B
:100240000CF73C43CF78282F00D14561CF78482F59
:1002500000D10561761C082EE4D34460F0BD000097
:10026000064942F21072086880F48070086000202D
:10027000401C80B29042FBD3F5E700000C0801401F
:100280002DE9F04F85B00121052000F0B9FA0121D8
:10029000880300F0B5FA4FF40070ADF8000018279D
:1002A0008DF8037003268DF8026069466248FFF7F7
:1002B00085FF4FF4806AADF800A004258DF8035047
:1002C00069465D48FFF77AFF0024DFF870B14FF40C
:1002D000E139ADF80840ADF80C404FF00C08CDF80E
:1002E0000490ADF80A40ADF81040ADF80E8001A9B9
:1002F000584600F0B9FC012240F22551584600F062
:100300009BFC0121584600F06EFC4021584600F04D
:1003100067FC0121052000F073FA0121480400F078
:1003200063FAADF800508DF803708DF802606946ED
:100330004148FFF743FF0820ADF800008DF8035057
:1003400069463D48FFF73AFF69463B48FFF736FFED
:10035000CDF80490DFF8E890ADF80840ADF80C4017
:10036000ADF80A40ADF81040ADF80E8001A948463E
:1003700000F07AFC012240F22551484600F05CFC76
:100380000121484600F02FFC4021484600F028FC9F
:100390000121082000F034FA10208DF80300DFF866
:1003A000A4908DF80260ADF8005069464846FFF70A
:1003B00005FF0121092000F023FA0121880400F043
:1003C00013FAADF800A08DF803708DF8026069464D
:1003D0004846FFF7F3FE6802ADF800008DF80350C1
:1003E00069464846FFF7EAFE69464846FFF7E6FEDB
:1003F000ADF80840ADF80A40ADF80C40ADF810403B
:100400004FF41650104C0190ADF80E8001A9204613
:1004100000F02AFC012240F22551204600F00CFC9D
:100420000121204600F0DFFB4021204600F0D8FBF0
:1004300005B0BDE8F08F0000000801400038014021
:1004400000440040000C014000480040074880681C
:10045000800409D406480068C00705D105488068B3
:10046000C00501D5012070470020704700100140F1
:10047000080801400020014007488068800409D531
:1004800006480068C00705D005488068C00501D44B
:10049000012070470020704700100140080801400B
:1004A0000020014007488068800409D5064800689C
:1004B000C00705D005488068C00501D501207047F8
:1004C0000020704700100140080801400020014052
:1004D00007488068800409D506480068C00705D130
:1004E00005488068C00501D401207047002070478E
:1004F00000100140080801400020014003488068C6
:10050000000401D401207047002070470020014002
:1005100003480068000701D401207047002070479D
:100520000814014003488068400401D4012070474A
:10053000002070470020014003488068800401D4F7
:100540000120704700207047002001400348806868
:10055000000601D4012070470020704700200140B0
:1005600007488068800409D406480068C00705D0A1
:1005700005488068C00501D50120704700207047FC
:10058000001001400808014000200140FEE77047CC
:1005900070B50F23C47801780122F4B1144C24689B
:1005A000457804F4E064C4F5E064240AC4F1040668
:1005B000E3408478B5401C402C4301F1E021230145
:1005C00081F80034007800F01F018A404009800063
:1005D00000F1E020C0F8002170BD01F01F00824052
:1005E0004809800000F1E020C0F8802170BD0000C3
:1005F0000CED00E002490843024908607047000022
:100600000000FA050CED00E07047000010B517A0DF
:1006100000F03AFC16A000F037FC25A12BA000F05A
:1006200033FC2FA12FA000F02FFC33A135A000F048
:100630002BFC01230622032137A000F025FC44A057
:1006400000F022FC44A000F01FFC49A000F01CFCBC
:100650004CA000F019FC52A000F016FC58A000F0CD
:1006600013FCBDE8104002A000F00EBC0A0D000013
:100670002A2A2A2A2A2A2A2A2A2A2A2A2A2A2A2ADA
:100680002A2A2A2A2A2A2A2A2A2A2A2A2A2A2A2ACA
:100690002A2A2A2A2A2A2A2A2A2A2A2A2A2A2A2ABA
:1006A0002A2A2A2A2A2A2A2A2A2A2A2A2A0A0D0011
:1006B00056342D3130315F535049B4AED0D0466CF2
:1006C000617368B6C1D0B4C0FDB3CC002A20C0FDB0
:1006D000B3CCC3FBB3C62020203A2025730D0A00FB
:1006E000312E30002A20C0FDB3CCB0E6B1BE2020B0
:1006F000203A2025730D0A00323031352D30382D47
:10070000333000002A20B7A2B2BCC8D5C6DA2020F8
:10071000203A2025730D0A002A20B9CCBCFEBFE286
:10072000B0E6B1BE203A205625642E25642E2564FD
:10073000202853544D3332463130785F537464501F
:1007400065726970685F447269766572290D0A0086
:100750002A200A0D000000002A20515120202020CC
:100760003A2031323935373434363330200D0A00EF
:100770002A20CDFACDFA20203A2061726D666C797C
:100780000D0A00002A20456D61696C203A206172D3
:100790006D666C794071712E636F6D200D0A0000DB
:1007A0002A20CCD4B1A6B5EA3A2061726D666C7984
:1007B0002E74616F62616F2E636F6D0D0A00000011
:1007C0002A20436F70797269676874207777772E73
:1007D00061726D666C792E636F6D20B0B2B8BBC06C
:1007E000B3B5E7D7D30D0A00044A0029D16901D077
:1007F000014300E08143D1617047000000100240D6
:10080000044A0029916901D0014300E081439161CC
:10081000704700000010024030B51F494A6812F0CE
:100820000C031E4A03D0042B01D0082B21D00260F8
:100830004A680F231A4C03EA1212A35C0268DA40DA
:1008400042604B68072505EA1323E35C22FA03F3B1
:1008500083604B6805EAD323E35CDA40C2604968F1
:10086000032303EA9131231F595CB2FBF1F10161CB
:1008700030BD4A684B6802F470124FF0020413F462
:10088000803F04EB924202D04B689B0301D5054B9D
:1008900000E0024B5A43CAE70010024000127A00FF
:1008A0003000002000093D000029018802D041F0FD
:1008B000400101E021F04001018070470246002024
:1008C00012890A4200D001207047808970478181D7
:1008D000704770470CB500212648019100910268CD
:1008E00042F4803202604FF4A063026802F40032E6
:1008F0000092019A521C0192009A12B9019A9A42EE
:10090000F3D10268920333D5012100911A490A6894
:1009100042F010020A600A6822F003020A600A68C4
:1009200042F002020A6041684160416841604168EA
:1009300041F480614160416821F47C11416041686B
:1009400041F4E8114160016841F080710160016883
:100950008901FCD5416821F003014160416841F003
:10096000020141604168C1F381010229FAD10CBD45
:1009700000910CBD0010024000200240AFF3008047
:1009800070B51B4C6068012220B16068401E606039
:1009900000D12270174B002101EB410003EB8000D6
:1009A00045684DB145686D1E456005D142700578BA
:1009B000012D01D185684560491CC9B20429EBD3DA
:1009C000A068401CA060A0686FF00041002588422C
:1009D00000D1A56000F090FD6078401CC0B260704E
:1009E0000A2804D36570BDE8704000F083BD70BD77
:1009F00010000020240100200F4810B5016841F0CC
:100A00000101016041680D4A1140416001680C4AD2
:100A100011400160016821F480210160416821F4E6
:100A2000FE0141604FF41F018160FFF753FF05494C
:100A30004FF00060086010BD001002400000FFF899
:100A4000FFFFF6FE08ED00E070B502214C072046DE
:100A500000F051F8204D50B10221204600F03EF840
:100A600000220221204600F052F8E8688047042165
:100A7000204600F040F850B10421204600F02EF846
:100A800000220421204600F042F82869804708210E
:100A9000204600F030F850B10821204600F01EF842
:100AA00000220821204600F032F8686980471021B2
:100AB000204600F020F800280CD01021204600F03D
:100AC0000DF800221021204600F021F8A869BDE8A9
:100AD0007040004770BD000010000020C943018233
:100AE00070470029018802D041F0010101E021F0A6
:100AF00001010180704702460020138A92890B424F
:100B000002EA010202D0002A00D001207047002A28
:100B1000828901D00A4300E08A4382817047000045
:100B200030B502881B4B1C4C98420DD0A0420BD014
:100B3000B0F1804F08D0194DA84205D0184DA842F9
:100B400002D0184DA84203D122F070054A882A43EA
:100B5000154DA84206D0154DA84203D022F4407589
:100B6000CA882A4302808A8882850A880285984238
:100B70000AD0A04208D00E4A904205D00D4A9042B9
:100B800002D00D4A904201D1097A01860121818269
:100B900030BD0000002C0140003401400004004042
:100BA00000080040000C004000100040001400400D
:100BB000004001400044014000480140014800F06D
:100BC000B7B8000054010020014800F0B1B800009F
:100BD0007C090020014800F0ABB80000A4110020FF
:100BE000C943018070470029818902D041F4005136
:100BF00001E021F400518181704730B501F01F02FE
:100C000001240025C1F3421304FA02F2012B0FD094
:100C1000022B0FD0838A4FEA11210088134204FA75
:100C200001F400EA040001D000B10125284630BDDE
:100C30008389F0E7038AEEE710B5C1F3421301F0B0
:100C40001F040121A140012B07D0022B07D0143033
:100C5000002A026805D00A4304E00C30F8E710309F
:100C6000F6E78A43026010BD30B50446008A85B0BD
:100C70000D464CF6FF710840E98801432182A189A5
:100C80004EF6F3100140A8882A8910436A890A4366
:100C90001043A081A08A4FF6FF410840A989014373
:100CA000A1826846FFF7B8FD1948844201D1039834
:100CB00000E00298A189090400EBC00101EB0010DB
:100CC000296801D5490000E08900B0FBF1F06422F9
:100CD000B0FBF2F109010B096FF018056B4300EB53
:100CE0008300A3891D044FF0320306D503EBC00037
:100CF000B0FBF2F000F0070005E003EB0010B0FBE2
:100D0000F2F000F00F000843208105B030BD000074
:100D1000003801408088C0F308007047C1F3080123
:100D2000818070470148C069704700000010024090
:100D30002DE9F0410446006840F22551FFF75DFFC0
:100D40000025B8B12068FFF7E5FFE28AA168C0B2CC
:100D50008854E18A491C8AB2E282E1898A4200D33E
:100D6000E582628B8A4202D2618B491C6183616A8F
:100D700001B1884740F2277739462068FFF73DFFE9
:100D800040F2266690B1A08AC0B900223946206898
:100D9000FFF752FF31462068BDE8F0410122FFF71E
:100DA0004BBFA08A401EA082BDE8F081314620687A
:100DB000FFF723FF0028F7D0A08A70B1618A60682E
:100DC000415C2068FFF7AAFF608A401C80B2608205
:100DD000A1898842E5D36582E3E700223146206895
:100DE000FFF72AFF206A0028DED0BDE8F041004767
:100DF000214920484FF48062086001F128004860D2
:100E000000F5806088608A81CA810020088248825B
:100E1000C882088348838882C8610862486201F6F4
:100E20002801164B0B6001F128034B6001F5856327
:100E30008B608A81CA8108824882C882088348837D
:100E40008882C8610862486201F628010C4B0B6079
:100E500001F128034B6001F585638B608A81CA81AB
:100E600008824882C882088348838882C8610862F1
:100E7000486270470038014054010020004400409F
:100E800000480040FEE700000FB4054B10B503A971
:100E9000044A029800F018F810BC5DF814FB00003A
:100EA000271600085400002002E008C8121F08C1DD
:100EB000002AFAD170477047002001E001C1121FDB
:100EC000002AFBD1704700002DE9FF4F8BB09A46F6
:100ED0000F460546002606E025280BD052460D9900
:100EE00090476D1C761C28780028F5D10FB030464D
:100EF000BDE8F08F0024A0460122604900E00443D1
:100F000015F8013F203B02FA03F00842F7D1287898
:100F10002E2817D115F8010F44F004042A280ED00A
:100F20006FF02F022878A0F1300109290AD808EBC8
:100F3000880102EB410100EB01086D1CF2E757F854
:100F4000048B6D1C287869283ED006DC0028CDD0A3
:100F500063280BD0642804D136E0732810D075289C
:100F60004BD052460D999047761C85E017F8040B3C
:100F70008DF8000000208DF80100E946012003E013
:100F800057F8049B4FF0FF3061074FF0000401D485
:100F90000AE0641C44450DDA8442FADB19F80410B7
:100FA0000029F6D106E0641C8442FCDB19F8041029
:100FB0000029F8D1264404E019F8010B52460D9996
:100FC0009047641EF8D257E001CF4FF00A0B00287B
:100FD00002DA40422D2102E0210504D52B218DF8B3
:100FE0002410012103E0E10705D02021F7E70DF1EE
:100FF000200908910CE00021F9E701CF4FF00A0B1E
:10100000F9E75946FFF799F801F1300209F8012D87
:101010000028F6D1ADEB090000F1200B600701D4E8
:101020004FF00108D84502DDA8EB0B0000E00020DE
:101030008046002406E009A85246005D0D999047BD
:10104000641C761C08988442F5DB04E0302052468C
:101050000D999047761CB8F10001A8F10108F5DC64
:1010600005E019F8010B52460D999047761CBBF12B
:101070000001ABF1010BF4DC6D1C34E70928010021
:1010800070B50646284800EB061420688047052105
:1010900000250028207906EB460331D0052801D22F
:1010A000217170BD0A2802D2401C207170BDA07A47
:1010B00006EB4606761C20B90120A072F0B200F0C3
:1010C0000BFA21890029F1D0E088884208D2401C1F
:1010D00080B2E08021898842E8D1DB1CD8B20BE0E5
:1010E000E07A0028E2D0207B401CC0B22073E17A75
:1010F0008842DBD32573F0B2BDE8704000F0ECB954
:10110000052801D921710BE010B1401E207107E0C4
:10111000A07A012804D19B1CA572D8B200F0DCF99A
:10112000E580257370BD00005800002010B54FF415
:101130004070FFF75FFA00F09DF900F03DF800F015
:1011400069F900F029F9BDE8104000F0DFB80000AF
:101150007FB501210846FFF747FB154815490024D4
:1011600000684FF080454008B0FBF1F04FF6FF718A
:10117000ADF80410ADF80000ADF80640ADF802403F
:1011800069462846FFF7CCFC01212846FFF7A9FC59
:101190001C208DF80C0004208DF80D008DF80E40F9
:1011A00001208DF80F0003A8FFF7F2F97FBD0000C2
:1011B0004000002040420F0010B500F053F8BDE899
:1011C000104000F001B8000038B501214FF49A70CA
:1011D000FFF716FB03208DF8020004208DF80300B2
:1011E000C402ADF8004069461A48FEF7E7FF012047
:1011F000ADF8000069461848FEF7E0FF6011174D92
:10120000ADF8000069462846FEF7D8FFA000ADF80B
:10121000000069462846FEF7D1FF0820ADF800001F
:1012200069460F48FEF7CAFF6000ADF80000694646
:101230002846FEF7C3FFADF8004069462846FEF792
:10124000BDFF8020ADF8000069462846FEF7B6FFD6
:1012500038BD00000010014000080140002001409E
:101260000014014030B51E48002164238172C17210
:101270000173A0380A46022500EB0214521C238198
:101280002571A172E172D2B221730A2AF4D30387C5
:10129000052180F83B10A0F8483080F84B10A0F8EA
:1012A000583080F85B10A0F8683080F86B100D495A
:1012B00040F82C1B0C4940F81C1C0C4940F80C1C35
:1012C0000B4941600B4941610B4941620B49416344
:1012D0000B4941640B4941650B49416630BD000033
:1012E000F80000204D040008A5040008D1040008FF
:1012F000FD0400081105000825050008390500084F
:101300004D050008610500087904000838B5012181
:101310008020FFF775FA012000F048FA10208DF8C0
:10132000030003208DF802004FF40060ADF80000C8
:1013300069461648FEF742FF00F0E6F9002000F08B
:1013400035FA042000F012F9012000F02FFA00F025
:1013500043FA0F480F4900240068884208D1002052
:1013600000F024FA502000F001F9012000F01EFAEC
:10137000002000F01BFA012000F0F8F8204600F0F1
:10138000F5F8BDE83840012000F010BA001C01401B
:10139000080100204125BF0038B501210803FFF7EF
:1013A0002FFA01210420FFF72BFA18208DF80300F3
:1013B00003208DF802002020144CADF8000069468F
:1013C0002046FEF7FBFE4020ADF8000069462046AF
:1013D000FEF7F4FE8020ADF8000069462046FEF7D7
:1013E000EDFE4FF44B7000F089F8094CA08B20F40F
:1013F0000060A0830720208200212046FFF754FAD6
:1014000001212046FFF750FA38BD000000080140D6
:101410000030014030B40020134A014600EB400484
:1014200002EB840359609960597002F82410401C43
:10143000C0B20428F2D30D484FF47A720068B0FBB2
:10144000F2F0B0F1807F0CD220F07F424FF0E0202C
:10145000521E4261064BF02283F8142D8161072150
:10146000016130BCFFF774BE240100204000002061
:101470000FE000E038B5FFF7BBFCFEF701FF2520C9
:101480008DF8000000208DF8020001248DF8034043
:101490006846FFF77DF826208DF800008DF80240A1
:1014A0008DF803406846FFF773F827208DF8000099
:1014B00002208DF802008DF803406846FFF768F8B7
:1014C00038BD10B500242046FFF7DAFD641CE4B2F5
:1014D0000A2CF8D310BD00000549CA7A8854C87A8E
:1014E000401CC0B2C8720A2801D30020C8727047DD
:1014F000F8000020FFF7E5BF7047000007490A88A1
:1015000002F4415202430A80088820F0400008801B
:10151000088840F04000088070470000003001401B
:1015200001490120087070470C000020014900208B
:10153000087070470C00002010B50B4C02212046AB
:10154000FFF7BCF90028F9D000212046FFF7BFF9CA
:1015500001212046FFF7B2F90028F9D02046FFF715
:10156000B4F9C0B210BD00000030014070B50B4CA2
:10157000054602212046FFF7A1F90028F9D02946A7
:101580002046FFF7A4F901212046FFF797F900282C
:10159000F9D02046BDE87040FFF797B90030014010
:1015A000F8B515460E46FEF7F3FD040034D0E069A9
:1015B00000B18047002025E0A189012282F3108834
:1015C000A28AADF80020002282F31088BDF8002026
:1015D0009142F2D9315C238A6268D154012181F3AE
:1015E0001088218A491C89B22182A289914201D3A3
:1015F00000212182A18A491CA182002181F3108847
:10160000401C80B2A842D7D32068BDE8F840012230
:1016100040F22771FFF710BBF8BD13B5012201A9F5
:10162000FFF7BEFF1CBD10B50446C1B20020FFF796
:10163000F4FF204610BD0000FFF778FDFEF7E6FF3F
:101640001848002500F102080580A8F800508146DE
:1016500001270446B9F800004E4660B139280CD085
:10166000A9F80050B8F80000464678B1572810D0C5
:10167000A8F80050EEE739203080A0680028F1D0AB
:1016800009A0FFF701FCC4E90175F4E75720A76042
:10169000308060680028DDD009A0FFF7F5FB6560A9
:1016A000F4E700000000002050726F746F746872DD
:1016B00065616420312072756E6E696E670D0A0077
:1016C00050726F746F746872656164203220727535
:1016D0006E6E696E670D0A0070B5002000F066F846
:1016E0009F20FFF743FFFFF727FF0446FFF724FF84
:1016F0000546FFF721FF0646012000F057F82004B9
:1017000040EA0520304370BD70B5FFF7E5FF154C8A
:1017100015494FF40016206040184FF4805509D049
:101720001249401808D0124940180BD0012810D097
:1017300010A102E013A100E015A1201DFEF7F4FCAA
:1017400066610DE015A1201DFEF7EEFC4FF40000D0
:1017500005E014A1201DFEF7E7FC4FF080706061EA
:10176000258370BD08010020BFDA40FF2C05FDFF76
:10177000FEDFD2FF556E6B6E6F7720466C6173682B
:101780000000000053535432355646303136420083
:101790004D5832354C3136303645000057323551D0
:1017A00036340000573235513132380010B54FF41D
:1017B000006428B107480460BDE81040FFF7B6BEDA
:1017C000FFF7AEFE40F21730FFF798FE0148001D0C
:1017D000046010BD101C014010B50020FFF7E6FFAB
:1017E0000520FFF7C3FE00BFFFF7A6FEC007FBD131
:1017F000BDE810400120FFF7D9BF00001C18000809
:101800000000002058000000A80E0008741800080E
:1018100058000020781D0000B80E000800000000ED
:1018200000000000000000000000000000000000B8
:1018300000000000000000000000000000000000A8
:101840000000000000000000020406080000000084
:1018500001020304010203040607080900A24A0466
:101860000000000000000000010203040607080950
:041870000000000074
:04000005080000ED02
:00000001FF
